{
  "_format": "hh-sol-artifact-1",
  "contractName": "LeaseFactory",
  "sourceName": "contracts/leaseContract.sol",
  "abi": [
    {
      "inputs": [
        {
          "internalType": "address",
          "name": "_vlogic",
          "type": "address"
        }
      ],
      "stateMutability": "nonpayable",
      "type": "constructor"
    },
    {
      "inputs": [],
      "name": "beacon",
      "outputs": [
        {
          "internalType": "contract LeaseBeacon",
          "name": "",
          "type": "address"
        }
      ],
      "stateMutability": "view",
      "type": "function"
    },
    {
      "inputs": [
        {
          "internalType": "uint256",
          "name": "_monthlyRent",
          "type": "uint256"
        },
        {
          "internalType": "uint256",
          "name": "_incrementRate",
          "type": "uint256"
        },
        {
          "internalType": "uint256",
          "name": "_idLease",
          "type": "uint256"
        }
      ],
      "name": "createLease",
      "outputs": [
        {
          "internalType": "address",
          "name": "",
          "type": "address"
        }
      ],
      "stateMutability": "nonpayable",
      "type": "function"
    },
    {
      "inputs": [],
      "name": "getBeacon",
      "outputs": [
        {
          "internalType": "address",
          "name": "",
          "type": "address"
        }
      ],
      "stateMutability": "view",
      "type": "function"
    },
    {
      "inputs": [],
      "name": "getImplementation",
      "outputs": [
        {
          "internalType": "address",
          "name": "",
          "type": "address"
        }
      ],
      "stateMutability": "view",
      "type": "function"
    },
    {
      "inputs": [
        {
          "internalType": "uint256",
          "name": "x",
          "type": "uint256"
        }
      ],
      "name": "getVault",
      "outputs": [
        {
          "internalType": "address",
          "name": "",
          "type": "address"
        }
      ],
      "stateMutability": "view",
      "type": "function"
    },
    {
      "inputs": [
        {
          "internalType": "uint256",
          "name": "",
          "type": "uint256"
        }
      ],
      "name": "leases",
      "outputs": [
        {
          "internalType": "address",
          "name": "",
          "type": "address"
        }
      ],
      "stateMutability": "view",
      "type": "function"
    }
  ],
  "bytecode": "0x608060405234801561001057600080fd5b50604051610e33380380610e3383398101604081905261002f916100a4565b803360405161003d90610097565b6001600160a01b03928316815291166020820152604001604051809103906000f080158015610070573d6000803e3d6000fd5b50600180546001600160a01b0319166001600160a01b0392909216919091179055506100d4565b61043c806109f783390190565b6000602082840312156100b657600080fd5b81516001600160a01b03811681146100cd57600080fd5b9392505050565b610914806100e36000396000f3fe608060405234801561001057600080fd5b50600436106100625760003560e01c80632d6b3a6b1461006757806359659e901461009057806378486091146100a35780638927a106146100b65780639403b634146100df578063aaf10f4214610108575b600080fd5b6001546001600160a01b03165b6040516001600160a01b03909116815260200160405180910390f35b600154610074906001600160a01b031681565b6100746100b136600461024c565b610110565b6100746100c4366004610278565b6000602081905290815260409020546001600160a01b031681565b6100746100ed366004610278565b6000908152602081905260409020546001600160a01b031690565b6100746101cc565b6001546040805133602482015260448101859052606480820187905282518083039091018152608490910182526020810180516001600160e01b0316633d0d630f60e11b179052905160009283926001600160a01b03909116916101739061023f565b61017e929190610291565b604051809103906000f08015801561019a573d6000803e3d6000fd5b5060009384526020849052604090932080546001600160a01b0319166001600160a01b03851617905550909392505050565b60015460408051635c60da1b60e01b815290516000926001600160a01b031691635c60da1b9160048083019260209291908290030181865afa158015610216573d6000803e3d6000fd5b505050506040513d601f19601f8201168201806040525081019061023a91906102ef565b905090565b6105bf8061032083390190565b60008060006060848603121561026157600080fd5b505081359360208301359350604090920135919050565b60006020828403121561028a57600080fd5b5035919050565b60018060a01b038316815260006020604081840152835180604085015260005b818110156102cd578581018301518582016060015282016102b1565b506000606082860101526060601f19601f830116850101925050509392505050565b60006020828403121561030157600080fd5b81516001600160a01b038116811461031857600080fd5b939250505056fe60a06040526040516105bf3803806105bf83398101604081905261002291610387565b61002c828261003e565b506001600160a01b031660805261047e565b610047826100fe565b6040516001600160a01b038316907f1cf3b03a6cf19fa2baba4df148e9dcabedea7f8a5c07840e207e5c089be95d3e90600090a28051156100f2576100ed826001600160a01b0316635c60da1b6040518163ffffffff1660e01b8152600401602060405180830381865afa1580156100c3573d6000803e3d6000fd5b505050506040513d601f19601f820116820180604052508101906100e79190610447565b82610211565b505050565b6100fa610288565b5050565b806001600160a01b03163b60000361013957604051631933b43b60e21b81526001600160a01b03821660048201526024015b60405180910390fd5b807fa3f0ad74e5423aebfd80d3ef4346578335a9a72aeaee59ff6cb3582b35133d5080546001600160a01b0319166001600160a01b0392831617905560408051635c60da1b60e01b81529051600092841691635c60da1b9160048083019260209291908290030181865afa1580156101b5573d6000803e3d6000fd5b505050506040513d601f19601f820116820180604052508101906101d99190610447565b9050806001600160a01b03163b6000036100fa57604051634c9c8ce360e01b81526001600160a01b0382166004820152602401610130565b6060600080846001600160a01b03168460405161022e9190610462565b600060405180830381855af49150503d8060008114610269576040519150601f19603f3d011682016040523d82523d6000602084013e61026e565b606091505b50909250905061027f8583836102a9565b95945050505050565b34156102a75760405163b398979f60e01b815260040160405180910390fd5b565b6060826102be576102b982610308565b610301565b81511580156102d557506001600160a01b0384163b155b156102fe57604051639996b31560e01b81526001600160a01b0385166004820152602401610130565b50805b9392505050565b8051156103185780518082602001fd5b604051630a12f52160e11b815260040160405180910390fd5b80516001600160a01b038116811461034857600080fd5b919050565b634e487b7160e01b600052604160045260246000fd5b60005b8381101561037e578181015183820152602001610366565b50506000910152565b6000806040838503121561039a57600080fd5b6103a383610331565b60208401519092506001600160401b03808211156103c057600080fd5b818501915085601f8301126103d457600080fd5b8151818111156103e6576103e661034d565b604051601f8201601f19908116603f0116810190838211818310171561040e5761040e61034d565b8160405282815288602084870101111561042757600080fd5b610438836020830160208801610363565b80955050505050509250929050565b60006020828403121561045957600080fd5b61030182610331565b60008251610474818460208701610363565b9190910192915050565b6080516101276104986000396000601e01526101276000f3fe6080604052600a600c565b005b60186014601a565b60a0565b565b60007f00000000000000000000000000000000000000000000000000000000000000006001600160a01b0316635c60da1b6040518163ffffffff1660e01b8152600401602060405180830381865afa1580156079573d6000803e3d6000fd5b505050506040513d601f19601f82011682018060405250810190609b919060c3565b905090565b3660008037600080366000845af43d6000803e80801560be573d6000f35b3d6000fd5b60006020828403121560d457600080fd5b81516001600160a01b038116811460ea57600080fd5b939250505056fea26469706673582212200f311de43a2f58324c63d72a88479ec40f8d7a49fa50ea1b660a87007e797ca264736f6c63430008140033a26469706673582212200df34b595b75088b3c1dda5503a7d3baba605f23e2211e55512f734ae761aafe64736f6c63430008140033608060405234801561001057600080fd5b5060405161043c38038061043c83398101604081905261002f91610169565b8181806001600160a01b03811661006157604051631e4fbdf760e01b8152600060048201526024015b60405180910390fd5b61006a8161007d565b50610074826100cd565b5050505061019c565b600080546001600160a01b038381166001600160a01b0319831681178455604051919092169283917f8be0079c531659141344cd1fd0a4f28419497f9722a3daafe3b4186f6b6457e09190a35050565b806001600160a01b03163b6000036101035760405163211eb15960e21b81526001600160a01b0382166004820152602401610058565b600180546001600160a01b0319166001600160a01b0383169081179091556040517fbc7cd75a20ee27fd9adebab32041f755214dbc6bffa90cc0225b39da2e5c2d3b90600090a250565b80516001600160a01b038116811461016457600080fd5b919050565b6000806040838503121561017c57600080fd5b6101858361014d565b91506101936020840161014d565b90509250929050565b610291806101ab6000396000f3fe608060405234801561001057600080fd5b50600436106100575760003560e01c80633659cfe61461005c5780635c60da1b14610071578063715018a61461009a5780638da5cb5b146100a2578063f2fde38b146100b3575b600080fd5b61006f61006a36600461022b565b6100c6565b005b6001546001600160a01b03165b6040516001600160a01b03909116815260200160405180910390f35b61006f6100da565b6000546001600160a01b031661007e565b61006f6100c136600461022b565b6100ee565b6100ce61012e565b6100d78161015b565b50565b6100e261012e565b6100ec60006101db565b565b6100f661012e565b6001600160a01b03811661012557604051631e4fbdf760e01b8152600060048201526024015b60405180910390fd5b6100d7816101db565b6000546001600160a01b031633146100ec5760405163118cdaa760e01b815233600482015260240161011c565b806001600160a01b03163b6000036101915760405163211eb15960e21b81526001600160a01b038216600482015260240161011c565b600180546001600160a01b0319166001600160a01b0383169081179091556040517fbc7cd75a20ee27fd9adebab32041f755214dbc6bffa90cc0225b39da2e5c2d3b90600090a250565b600080546001600160a01b038381166001600160a01b0319831681178455604051919092169283917f8be0079c531659141344cd1fd0a4f28419497f9722a3daafe3b4186f6b6457e09190a35050565b60006020828403121561023d57600080fd5b81356001600160a01b038116811461025457600080fd5b939250505056fea26469706673582212205d056e03ca6d46c591a27cdae4ef064c877d6b45ee052dae38f8c997dac47e9864736f6c63430008140033",
  "linkReferences": {},
  "deployedLinkReferences": {}
}