{
  "_format": "hh-sol-artifact-1",
  "contractName": "LeaseContract",
  "sourceName": "contracts/leaseContract.sol",
  "abi": [
    {
      "inputs": [],
      "name": "InvalidInitialization",
      "type": "error"
    },
    {
      "inputs": [],
      "name": "NotInitializing",
      "type": "error"
    },
    {
      "anonymous": false,
      "inputs": [
        {
          "components": [
            {
              "internalType": "address",
              "name": "id",
              "type": "address"
            },
            {
              "internalType": "uint256",
              "name": "startDate",
              "type": "uint256"
            },
            {
              "internalType": "uint256",
              "name": "endDate",
              "type": "uint256"
            },
            {
              "internalType": "uint256",
              "name": "monthlyRent",
              "type": "uint256"
            },
            {
              "internalType": "uint256",
              "name": "rentDue",
              "type": "uint256"
            },
            {
              "internalType": "uint256",
              "name": "lastRentPaidDate",
              "type": "uint256"
            },
            {
              "internalType": "uint256",
              "name": "advanceAmountPaid",
              "type": "uint256"
            },
            {
              "internalType": "uint256",
              "name": "securityDepositPaid",
              "type": "uint256"
            },
            {
              "internalType": "bool",
              "name": "renewLease",
              "type": "bool"
            },
            {
              "internalType": "bool",
              "name": "renewLeaseOwner",
              "type": "bool"
            }
          ],
          "indexed": false,
          "internalType": "struct LeaseContract.Tenant",
          "name": "tenant",
          "type": "tuple"
        },
        {
          "indexed": false,
          "internalType": "address",
          "name": "owner",
          "type": "address"
        }
      ],
      "name": "DisputeHandled",
      "type": "event"
    },
    {
      "anonymous": false,
      "inputs": [
        {
          "indexed": false,
          "internalType": "uint64",
          "name": "version",
          "type": "uint64"
        }
      ],
      "name": "Initialized",
      "type": "event"
    },
    {
      "anonymous": false,
      "inputs": [
        {
          "components": [
            {
              "internalType": "address",
              "name": "id",
              "type": "address"
            },
            {
              "internalType": "uint256",
              "name": "startDate",
              "type": "uint256"
            },
            {
              "internalType": "uint256",
              "name": "endDate",
              "type": "uint256"
            },
            {
              "internalType": "uint256",
              "name": "monthlyRent",
              "type": "uint256"
            },
            {
              "internalType": "uint256",
              "name": "rentDue",
              "type": "uint256"
            },
            {
              "internalType": "uint256",
              "name": "lastRentPaidDate",
              "type": "uint256"
            },
            {
              "internalType": "uint256",
              "name": "advanceAmountPaid",
              "type": "uint256"
            },
            {
              "internalType": "uint256",
              "name": "securityDepositPaid",
              "type": "uint256"
            },
            {
              "internalType": "bool",
              "name": "renewLease",
              "type": "bool"
            },
            {
              "internalType": "bool",
              "name": "renewLeaseOwner",
              "type": "bool"
            }
          ],
          "indexed": false,
          "internalType": "struct LeaseContract.Tenant",
          "name": "tenant",
          "type": "tuple"
        },
        {
          "indexed": false,
          "internalType": "uint256",
          "name": "rent",
          "type": "uint256"
        },
        {
          "indexed": false,
          "internalType": "uint256",
          "name": "newLastDate",
          "type": "uint256"
        }
      ],
      "name": "LeaseRenewed",
      "type": "event"
    },
    {
      "anonymous": false,
      "inputs": [
        {
          "components": [
            {
              "internalType": "address",
              "name": "id",
              "type": "address"
            },
            {
              "internalType": "uint256",
              "name": "startDate",
              "type": "uint256"
            },
            {
              "internalType": "uint256",
              "name": "endDate",
              "type": "uint256"
            },
            {
              "internalType": "uint256",
              "name": "monthlyRent",
              "type": "uint256"
            },
            {
              "internalType": "uint256",
              "name": "rentDue",
              "type": "uint256"
            },
            {
              "internalType": "uint256",
              "name": "lastRentPaidDate",
              "type": "uint256"
            },
            {
              "internalType": "uint256",
              "name": "advanceAmountPaid",
              "type": "uint256"
            },
            {
              "internalType": "uint256",
              "name": "securityDepositPaid",
              "type": "uint256"
            },
            {
              "internalType": "bool",
              "name": "renewLease",
              "type": "bool"
            },
            {
              "internalType": "bool",
              "name": "renewLeaseOwner",
              "type": "bool"
            }
          ],
          "indexed": false,
          "internalType": "struct LeaseContract.Tenant",
          "name": "tenant",
          "type": "tuple"
        },
        {
          "indexed": false,
          "internalType": "address",
          "name": "owner",
          "type": "address"
        },
        {
          "indexed": false,
          "internalType": "uint256",
          "name": "endDate",
          "type": "uint256"
        },
        {
          "indexed": false,
          "internalType": "uint256",
          "name": "securityDepositReturned",
          "type": "uint256"
        }
      ],
      "name": "LeaseTerminated",
      "type": "event"
    },
    {
      "anonymous": false,
      "inputs": [
        {
          "indexed": false,
          "internalType": "string",
          "name": "message",
          "type": "string"
        }
      ],
      "name": "Message",
      "type": "event"
    },
    {
      "anonymous": false,
      "inputs": [
        {
          "indexed": false,
          "internalType": "address",
          "name": "newOwner",
          "type": "address"
        }
      ],
      "name": "OwnershipTransferred",
      "type": "event"
    },
    {
      "anonymous": false,
      "inputs": [
        {
          "components": [
            {
              "internalType": "address",
              "name": "id",
              "type": "address"
            },
            {
              "internalType": "uint256",
              "name": "startDate",
              "type": "uint256"
            },
            {
              "internalType": "uint256",
              "name": "endDate",
              "type": "uint256"
            },
            {
              "internalType": "uint256",
              "name": "monthlyRent",
              "type": "uint256"
            },
            {
              "internalType": "uint256",
              "name": "rentDue",
              "type": "uint256"
            },
            {
              "internalType": "uint256",
              "name": "lastRentPaidDate",
              "type": "uint256"
            },
            {
              "internalType": "uint256",
              "name": "advanceAmountPaid",
              "type": "uint256"
            },
            {
              "internalType": "uint256",
              "name": "securityDepositPaid",
              "type": "uint256"
            },
            {
              "internalType": "bool",
              "name": "renewLease",
              "type": "bool"
            },
            {
              "internalType": "bool",
              "name": "renewLeaseOwner",
              "type": "bool"
            }
          ],
          "indexed": false,
          "internalType": "struct LeaseContract.Tenant",
          "name": "tenant",
          "type": "tuple"
        },
        {
          "indexed": false,
          "internalType": "uint256",
          "name": "rent",
          "type": "uint256"
        },
        {
          "indexed": false,
          "internalType": "uint256",
          "name": "lastRentPaidDate",
          "type": "uint256"
        }
      ],
      "name": "RentPaid",
      "type": "event"
    },
    {
      "anonymous": false,
      "inputs": [
        {
          "indexed": false,
          "internalType": "enum LeaseContract.StateLeaseContract",
          "name": "state",
          "type": "uint8"
        }
      ],
      "name": "StatusChanged",
      "type": "event"
    },
    {
      "inputs": [],
      "name": "RentRenewLease",
      "outputs": [],
      "stateMutability": "payable",
      "type": "function"
    },
    {
      "inputs": [],
      "name": "currentTenantAddress",
      "outputs": [
        {
          "internalType": "address",
          "name": "",
          "type": "address"
        }
      ],
      "stateMutability": "view",
      "type": "function"
    },
    {
      "inputs": [],
      "name": "getCurrentTenant",
      "outputs": [
        {
          "components": [
            {
              "internalType": "address",
              "name": "id",
              "type": "address"
            },
            {
              "internalType": "uint256",
              "name": "startDate",
              "type": "uint256"
            },
            {
              "internalType": "uint256",
              "name": "endDate",
              "type": "uint256"
            },
            {
              "internalType": "uint256",
              "name": "monthlyRent",
              "type": "uint256"
            },
            {
              "internalType": "uint256",
              "name": "rentDue",
              "type": "uint256"
            },
            {
              "internalType": "uint256",
              "name": "lastRentPaidDate",
              "type": "uint256"
            },
            {
              "internalType": "uint256",
              "name": "advanceAmountPaid",
              "type": "uint256"
            },
            {
              "internalType": "uint256",
              "name": "securityDepositPaid",
              "type": "uint256"
            },
            {
              "internalType": "bool",
              "name": "renewLease",
              "type": "bool"
            },
            {
              "internalType": "bool",
              "name": "renewLeaseOwner",
              "type": "bool"
            }
          ],
          "internalType": "struct LeaseContract.Tenant",
          "name": "",
          "type": "tuple"
        }
      ],
      "stateMutability": "view",
      "type": "function"
    },
    {
      "inputs": [],
      "name": "getLeaseState",
      "outputs": [
        {
          "internalType": "enum LeaseContract.StateLeaseContract",
          "name": "",
          "type": "uint8"
        }
      ],
      "stateMutability": "view",
      "type": "function"
    },
    {
      "inputs": [],
      "name": "getOwner",
      "outputs": [
        {
          "internalType": "address",
          "name": "",
          "type": "address"
        }
      ],
      "stateMutability": "view",
      "type": "function"
    },
    {
      "inputs": [
        {
          "internalType": "address",
          "name": "_id",
          "type": "address"
        }
      ],
      "name": "getTenant",
      "outputs": [
        {
          "components": [
            {
              "internalType": "address",
              "name": "id",
              "type": "address"
            },
            {
              "internalType": "uint256",
              "name": "startDate",
              "type": "uint256"
            },
            {
              "internalType": "uint256",
              "name": "endDate",
              "type": "uint256"
            },
            {
              "internalType": "uint256",
              "name": "monthlyRent",
              "type": "uint256"
            },
            {
              "internalType": "uint256",
              "name": "rentDue",
              "type": "uint256"
            },
            {
              "internalType": "uint256",
              "name": "lastRentPaidDate",
              "type": "uint256"
            },
            {
              "internalType": "uint256",
              "name": "advanceAmountPaid",
              "type": "uint256"
            },
            {
              "internalType": "uint256",
              "name": "securityDepositPaid",
              "type": "uint256"
            },
            {
              "internalType": "bool",
              "name": "renewLease",
              "type": "bool"
            },
            {
              "internalType": "bool",
              "name": "renewLeaseOwner",
              "type": "bool"
            }
          ],
          "internalType": "struct LeaseContract.Tenant",
          "name": "",
          "type": "tuple"
        }
      ],
      "stateMutability": "view",
      "type": "function"
    },
    {
      "inputs": [],
      "name": "incrementRate",
      "outputs": [
        {
          "internalType": "uint256",
          "name": "",
          "type": "uint256"
        }
      ],
      "stateMutability": "view",
      "type": "function"
    },
    {
      "inputs": [
        {
          "internalType": "address",
          "name": "_owner",
          "type": "address"
        },
        {
          "internalType": "uint256",
          "name": "_incrementRate",
          "type": "uint256"
        },
        {
          "internalType": "uint256",
          "name": "_monthlyRent",
          "type": "uint256"
        }
      ],
      "name": "initialize",
      "outputs": [],
      "stateMutability": "nonpayable",
      "type": "function"
    },
    {
      "inputs": [],
      "name": "monthlyRent",
      "outputs": [
        {
          "internalType": "uint256",
          "name": "",
          "type": "uint256"
        }
      ],
      "stateMutability": "view",
      "type": "function"
    },
    {
      "inputs": [],
      "name": "payRent",
      "outputs": [],
      "stateMutability": "payable",
      "type": "function"
    },
    {
      "inputs": [],
      "name": "rent",
      "outputs": [],
      "stateMutability": "payable",
      "type": "function"
    },
    {
      "inputs": [],
      "name": "setAvailable",
      "outputs": [],
      "stateMutability": "nonpayable",
      "type": "function"
    },
    {
      "inputs": [],
      "name": "setInactive",
      "outputs": [],
      "stateMutability": "nonpayable",
      "type": "function"
    },
    {
      "inputs": [
        {
          "internalType": "bool",
          "name": "_decision",
          "type": "bool"
        }
      ],
      "name": "setRenewLeaseOwner",
      "outputs": [],
      "stateMutability": "nonpayable",
      "type": "function"
    },
    {
      "inputs": [
        {
          "internalType": "bool",
          "name": "_decision",
          "type": "bool"
        }
      ],
      "name": "setRenewLeaseTenant",
      "outputs": [],
      "stateMutability": "view",
      "type": "function"
    },
    {
      "inputs": [],
      "name": "setRented",
      "outputs": [],
      "stateMutability": "nonpayable",
      "type": "function"
    },
    {
      "inputs": [],
      "name": "terminateLease",
      "outputs": [],
      "stateMutability": "nonpayable",
      "type": "function"
    },
    {
      "inputs": [
        {
          "internalType": "address",
          "name": "newOwner",
          "type": "address"
        }
      ],
      "name": "transferOwnership",
      "outputs": [],
      "stateMutability": "nonpayable",
      "type": "function"
    }
  ],
  "bytecode": "0x608060405234801561001057600080fd5b50611734806100206000396000f3fe6080604052600436106101095760003560e01c806382996d9f11610095578063e4cbecdf11610064578063e4cbecdf14610273578063e5cdb48814610289578063f1b9ee24146102a9578063f2fde38b146102be578063f830cd5a146102de57600080fd5b806382996d9f14610225578063893d20e81461022d578063a709c4fe1461024b578063b4a3cfc71461025357600080fd5b80633e6ca6aa116100dc5780633e6ca6aa1461018e5780634311b54e146101b05780636fc20e69146101d05780637a1ac61e146101f05780637a7d15661461021057600080fd5b80630163a7bf1461010e578063088cbf7e146101185780631168c9a8146101415780632aeb0e2814610156575b600080fd5b6101166102f3565b005b34801561012457600080fd5b5061012e60055481565b6040519081526020015b60405180910390f35b34801561014d57600080fd5b5061011661055e565b34801561016257600080fd5b50600154610176906001600160a01b031681565b6040516001600160a01b039091168152602001610138565b34801561019a57600080fd5b506101a3610a96565b604051610138919061145b565b3480156101bc57600080fd5b506101166101cb3660046114da565b610b37565b3480156101dc57600080fd5b506101166101eb3660046114da565b610b8a565b3480156101fc57600080fd5b5061011661020b36600461151f565b610be9565b34801561021c57600080fd5b50610116610d21565b610116610d8b565b34801561023957600080fd5b506000546001600160a01b0316610176565b610116610fdf565b34801561025f57600080fd5b5060035460ff166040516101389190611568565b34801561027f57600080fd5b5061012e60045481565b34801561029557600080fd5b506101a36102a4366004611590565b6111b2565b3480156102b557600080fd5b50610116611255565b3480156102ca57600080fd5b506101166102d9366004611590565b6112bc565b3480156102ea57600080fd5b50610116611308565b6001546001600160a01b039081166000908152600260205260409020541633146103385760405162461bcd60e51b815260040161032f906115ab565b60405180910390fd5b600180546001600160a01b031660009081526002602052604090206008015460ff1615151461036657600080fd5b6001546001600160a01b0316600090815260026020526040902060040154156103bf5760405162461bcd60e51b815260206004820152600b60248201526a52656e742069732064756560a81b604482015260640161032f565b600180546001600160a01b0316600090815260026020526040902060080154610100900460ff161515146103f257600080fd5b6001546001600160a01b03166000908152600260208190526040909120015442116104515760405162461bcd60e51b815260206004820152600f60248201526e1b19585cd9481b9bdd08195b991959608a1b604482015260640161032f565b61045f426301e1338061160b565b6001546001600160a01b03166000908152600260208190526040909120015560055460045460649161049091611624565b61049a919061163b565b6004546104a7919061160b565b60048190556104b7906003611624565b3410156104f95760405162461bcd60e51b815260206004820152601060248201526f6e6f7420656e6f756768206d6f6e657960801b604482015260640161032f565b600454610507906003611624565b34111561055c576000600454600361051f9190611624565b610529903461165d565b604051909150339082156108fc029083906000818181858888f19350505050158015610559573d6000803e3d6000fd5b50505b565b6000546001600160a01b031633148061059357506001546001600160a01b039081166000908152600260205260409020541633145b6105fb5760405162461bcd60e51b815260206004820152603360248201527f4f6e6c79206f776e6572206f722063757272656e742074656e616e742063616e6044820152721031b0b636103a3434b990333ab731ba34b7b760691b606482015260840161032f565b6001546001600160a01b03166000908152600260208190526040822001544210156106285750600161062c565b5060005b8015156001036108d5576000546001600160a01b0316330361074b576001546001600160a01b039081166000908152600260205260408082208054600790910154915193169281156108fc0292818181858888f19350505050158015610696573d6000803e3d6000fd5b50600180546001600160a01b039081166000908152600260205260408082206004018290559254821681528281208054600690910154935192169280156108fc02929091818181858888f193505050501580156106f7573d6000803e3d6000fd5b506000805160206116df83398151915260405161073e906020808252601690820152754f776e6572207465726d696e61746564206c6561736560501b604082015260600190565b60405180910390a1610a59565b600080546001546001600160a01b03908116835260026020526040808420600701549051919092169282156108fc02929190818181858888f1935050505015801561079a573d6000803e3d6000fd5b506000805160206116df8339815191526040516107e89060208082526019908201527f7365637572697479206465706f73697420746f206f776e657200000000000000604082015260600190565b60405180910390a1600080546001546001600160a01b03908116835260026020526040808420600601549051919092169282156108fc02929190818181858888f1935050505015801561083f573d6000803e3d6000fd5b506000805160206116df8339815191526040516108809060208082526010908201526f30b23b30b731b2903a379037bbb732b960811b604082015260600190565b60405180910390a16000805160206116df83398151915260405161073e9060208082526017908201527f54656e616e74207465726d696e61746564206c65617365000000000000000000604082015260600190565b60006108df61135b565b6001546001600160a01b03166000908152600260205260408120600701549192509061090c90839061165d565b90506000805160206116df83398151915260405161095b906020808252601a908201527f7365637572697479206465706f73697420746f2074656e616e74000000000000604082015260600190565b60405180910390a16001546001600160a01b0390811660009081526002602052604080822054905192169183156108fc0291849190818181858888f193505050501580156109ad573d6000803e3d6000fd5b506000805160206116df8339815191526040516109ee9060208082526010908201526f30b23b30b731b2903a379037bbb732b960811b604082015260600190565b60405180910390a1600180546001600160a01b039081166000908152600260205260408082206004018290558154935483168252808220600601549051939092169282156108fc029291818181858888f19350505050158015610a55573d6000803e3d6000fd5b5050505b50600180546001600160a01b03166000908152600260208190526040909120429101556003805460ff1916905580546001600160a01b0319169055565b610a9e6113fb565b50600180546001600160a01b03908116600090815260026020818152604092839020835161014081018552815490951685529485015490840152830154908201526003820154606082015260048201546080820152600582015460a0820152600682015460c0820152600782015460e082015260089091015460ff80821615156101008481019190915290910416151561012082015290565b6001546001600160a01b03908116600090815260026020526040902054163314610b735760405162461bcd60e51b815260040161032f906115ab565b506001546001600160a01b03166000526002602052565b6000546001600160a01b03163314610bb45760405162461bcd60e51b815260040161032f90611670565b6001546001600160a01b0316600090815260026020526040902060080180549115156101000261ff0019909216919091179055565b7ff0c57e16840df040f15088dc2f81fe391c3923bec73e23a9662efc9c229c6a008054600160401b810460ff16159067ffffffffffffffff16600081158015610c2f5750825b905060008267ffffffffffffffff166001148015610c4c5750303b155b905081158015610c5a575080155b15610c785760405163f92ee8a960e01b815260040160405180910390fd5b845467ffffffffffffffff191660011785558315610ca257845460ff60401b1916600160401b1785555b600080546001600160a01b0319166001600160a01b038a1617905560058790556003805460ff1916905560048690558315610d1757845460ff60401b19168555604051600181527fc7f505b2f371ae2175ee4913f4499e1f2633a7b5936321eed1cdaeb6115181d29060200160405180910390a15b5050505050505050565b6000546001600160a01b03163314610d4b5760405162461bcd60e51b815260040161032f90611670565b6001546001600160a01b031615610d745760405162461bcd60e51b815260040161032f906116a7565b600380546000919060ff19166001835b0217905550565b600060035460ff166002811115610da457610da4611552565b14610df15760405162461bcd60e51b815260206004820152601860248201527f4c65617365206973206e6f7420757020666f722072656e740000000000000000604482015260640161032f565b600454610dff906003611624565b341015610e415760405162461bcd60e51b815260206004820152601060248201526f4e6f7420656e6f756768206d6f6e657960801b604482015260640161032f565b600454610e4f906003611624565b341115610ea45760006004546003610e679190611624565b610e71903461165d565b604051909150339082156108fc029083906000818181858888f19350505050158015610ea1573d6000803e3d6000fd5b50505b604051806101400160405280336001600160a01b03168152602001428152602001426301e13380610ed5919061160b565b815260200160045481526020016000815260200142815260200160045481526020016004546002610f069190611624565b815260006020808301829052604092830182905233808352600280835292849020855181546001600160a01b03199081166001600160a01b0390921691909117825592860151600180830191909155948601519381019390935560608501516003808501919091556080860151600485015560a0860151600585015560c0860151600685015560e0860151600785015561010080870151600890950180546101209098015161ffff1990981695151561ff001916959095179615150295909517909255825416178155815490919060ff19168280610d84565b6001546001600160a01b0390811660009081526002602052604090205416331461101b5760405162461bcd60e51b815260040161032f906115ab565b6001546001600160a01b031660009081526002602081905260409091206003015461104591611624565b6001546001600160a01b0316600090815260026020526040902060060154146110b05760405162461bcd60e51b815260206004820152601760248201527f416476616e636520616d6f756e74206e6f742070616964000000000000000000604482015260640161032f565b6001546001600160a01b0316600090815260026020526040902060040154156111095760405162461bcd60e51b815260206004820152600b60248201526a52656e742069732064756560a81b604482015260640161032f565b6004543410156111525760405162461bcd60e51b81526020600482015260146024820152731c995b9d08185b5bdd5b9d081b9bdd081c185a5960621b604482015260640161032f565b60045434111561119f5760006004543461116c919061165d565b604051909150339082156108fc029083906000818181858888f1935050505015801561119c573d6000803e3d6000fd5b50505b600380546001919060ff19168280610d84565b6111ba6113fb565b506001600160a01b039081166000908152600260208181526040928390208351610140810185528154909516855260018101549185019190915290810154918301919091526003810154606083015260048101546080830152600581015460a0830152600681015460c0830152600781015460e08301526008015460ff80821615156101008085019190915290910416151561012082015290565b6000546001600160a01b0316331461127f5760405162461bcd60e51b815260040161032f90611670565b6001546001600160a01b0316156112a85760405162461bcd60e51b815260040161032f906116a7565b600380546002919060ff1916600183610d84565b6000546001600160a01b031633146112e65760405162461bcd60e51b815260040161032f90611670565b600080546001600160a01b0319166001600160a01b0392909216919091179055565b6000546001600160a01b031633146113325760405162461bcd60e51b815260040161032f90611670565b6001546001600160a01b03161561119f5760405162461bcd60e51b815260040161032f906116a7565b6001546001600160a01b0316600090815260026020526040812060050154819061138690429061165d565b905062278d00808211156113f2576000601e603c806018606460045487896113ae919061165d565b6113b89190611624565b6113c2919061163b565b6113cc919061163b565b6113d6919061163b565b6113e0919061163b565b6113ea919061163b565b949350505050565b60009250505090565b60405180610140016040528060006001600160a01b03168152602001600081526020016000815260200160008152602001600081526020016000815260200160008152602001600081526020016000151581526020016000151581525090565b81516001600160a01b0316815261014081016020830151602083015260408301516040830152606083015160608301526080830151608083015260a083015160a083015260c083015160c083015260e083015160e0830152610100808401516114c78285018215159052565b5050610120928301511515919092015290565b6000602082840312156114ec57600080fd5b813580151581146114fc57600080fd5b9392505050565b80356001600160a01b038116811461151a57600080fd5b919050565b60008060006060848603121561153457600080fd5b61153d84611503565b95602085013595506040909401359392505050565b634e487b7160e01b600052602160045260246000fd5b602081016003831061158a57634e487b7160e01b600052602160045260246000fd5b91905290565b6000602082840312156115a257600080fd5b6114fc82611503565b6020808252602a908201527f4f6e6c792063757272656e742074656e616e742063616e2063616c6c207468696040820152693990333ab731ba34b7b760b11b606082015260800190565b634e487b7160e01b600052601160045260246000fd5b8082018082111561161e5761161e6115f5565b92915050565b808202811582820484141761161e5761161e6115f5565b60008261165857634e487b7160e01b600052601260045260246000fd5b500490565b8181038181111561161e5761161e6115f5565b60208082526018908201527f4f6e6c792074656e616e742063616e207061792072656e740000000000000000604082015260600190565b6020808252601a908201527f63757272656e742074656e616e7420646f65732020657869737400000000000060408201526060019056fe51a7f65c6325882f237d4aeb43228179cfad48b868511d508e24b4437a819137a264697066735822122009ff6fc4a946b5ff910f136f2c64239b36d5693567d42292917de9bd2724087464736f6c63430008140033",
  "linkReferences": {},
  "deployedLinkReferences": {}
}